{
  "_format": "hh-sol-artifact-1",
  "contractName": "AINEONFlashLoan",
  "sourceName": "contracts/AINEONFlashLoan.sol",
  "abi": [
    {
      "inputs": [],
      "stateMutability": "nonpayable",
      "type": "constructor"
    },
    {
      "anonymous": false,
      "inputs": [
        {
          "indexed": false,
          "internalType": "uint256",
          "name": "profit",
          "type": "uint256"
        },
        {
          "indexed": false,
          "internalType": "uint256",
          "name": "timestamp",
          "type": "uint256"
        }
      ],
      "name": "$100MFlashLoanExecuted",
      "type": "event"
    },
    {
      "anonymous": false,
      "inputs": [
        {
          "indexed": false,
          "internalType": "uint256",
          "name": "improvement",
          "type": "uint256"
        }
      ],
      "name": "AIOptimizationApplied",
      "type": "event"
    },
    {
      "anonymous": false,
      "inputs": [
        {
          "indexed": false,
          "internalType": "address",
          "name": "user",
          "type": "address"
        },
        {
          "indexed": false,
          "internalType": "uint256",
          "name": "profit",
          "type": "uint256"
        }
      ],
      "name": "GaslessTradeExecuted",
      "type": "event"
    },
    {
      "inputs": [],
      "name": "MAX_FLASH_LOAN",
      "outputs": [
        {
          "internalType": "uint256",
          "name": "",
          "type": "uint256"
        }
      ],
      "stateMutability": "view",
      "type": "function"
    },
    {
      "inputs": [],
      "name": "aiOptimizer",
      "outputs": [
        {
          "internalType": "address",
          "name": "",
          "type": "address"
        }
      ],
      "stateMutability": "view",
      "type": "function"
    },
    {
      "inputs": [],
      "name": "executeAdvancedFlashLoan",
      "outputs": [],
      "stateMutability": "nonpayable",
      "type": "function"
    },
    {
      "inputs": [],
      "name": "executionBot",
      "outputs": [
        {
          "internalType": "address",
          "name": "",
          "type": "address"
        }
      ],
      "stateMutability": "view",
      "type": "function"
    },
    {
      "inputs": [],
      "name": "owner",
      "outputs": [
        {
          "internalType": "address",
          "name": "",
          "type": "address"
        }
      ],
      "stateMutability": "view",
      "type": "function"
    },
    {
      "inputs": [],
      "name": "riskBot",
      "outputs": [
        {
          "internalType": "address",
          "name": "",
          "type": "address"
        }
      ],
      "stateMutability": "view",
      "type": "function"
    },
    {
      "inputs": [],
      "name": "scoutBot",
      "outputs": [
        {
          "internalType": "address",
          "name": "",
          "type": "address"
        }
      ],
      "stateMutability": "view",
      "type": "function"
    },
    {
      "inputs": [
        {
          "internalType": "address",
          "name": "_scout",
          "type": "address"
        },
        {
          "internalType": "address",
          "name": "_executor",
          "type": "address"
        },
        {
          "internalType": "address",
          "name": "_risk",
          "type": "address"
        },
        {
          "internalType": "address",
          "name": "_ai",
          "type": "address"
        }
      ],
      "name": "setBotSystem",
      "outputs": [],
      "stateMutability": "nonpayable",
      "type": "function"
    },
    {
      "inputs": [],
      "name": "totalProfits",
      "outputs": [
        {
          "internalType": "uint256",
          "name": "",
          "type": "uint256"
        }
      ],
      "stateMutability": "view",
      "type": "function"
    }
  ],
  "bytecode": "0x608060405234801561001057600080fd5b50336000806101000a81548173ffffffffffffffffffffffffffffffffffffffff021916908373ffffffffffffffffffffffffffffffffffffffff160217905550610a97806100606000396000f3fe608060405234801561001057600080fd5b50600436106100935760003560e01c8063b08d0d6411610066578063b08d0d64146100fc578063bd998cb31461011a578063bef9adf714610138578063ce8b325014610156578063dbc104a61461017457610093565b8063443159d2146100985780636bff1df8146100a257806382c440e4146100c05780638da5cb5b146100de575b600080fd5b6100a0610190565b005b6100aa6103c5565b6040516100b79190610693565b60405180910390f35b6100c86103eb565b6040516100d59190610693565b60405180910390f35b6100e6610411565b6040516100f39190610693565b60405180910390f35b610104610435565b6040516101119190610693565b60405180910390f35b61012261045b565b60405161012f91906106c7565b60405180910390f35b610140610461565b60405161014d9190610693565b60405180910390f35b61015e610487565b60405161016b91906106c7565b60405180910390f35b61018e60048036038101906101899190610713565b610496565b005b600080600260009054906101000a900473ffffffffffffffffffffffffffffffffffffffff1673ffffffffffffffffffffffffffffffffffffffff166317e334516040518163ffffffff1660e01b815260040160408051808303816000875af1158015610201573d6000803e3d6000fd5b505050506040513d601f19601f8201168201806040525081019061022591906107bb565b915091506000600560009054906101000a900473ffffffffffffffffffffffffffffffffffffffff1673ffffffffffffffffffffffffffffffffffffffff166333bd1b6a84846040518363ffffffff1660e01b81526004016102889291906107fb565b6020604051808303816000875af11580156102a7573d6000803e3d6000fd5b505050506040513d601f19601f820116820180604052508101906102cb9190610824565b9050600460009054906101000a900473ffffffffffffffffffffffffffffffffffffffff1673ffffffffffffffffffffffffffffffffffffffff166353eb7c4c84836040518363ffffffff1660e01b815260040161032a9291906107fb565b6020604051808303816000875af1158015610349573d6000803e3d6000fd5b505050506040513d601f19601f8201168201806040525081019061036d9190610889565b6103ac576040517f08c379a00000000000000000000000000000000000000000000000000000000081526004016103a390610913565b60405180910390fd5b6103b683826105a0565b6103c08382610615565b505050565b600460009054906101000a900473ffffffffffffffffffffffffffffffffffffffff1681565b600560009054906101000a900473ffffffffffffffffffffffffffffffffffffffff1681565b60008054906101000a900473ffffffffffffffffffffffffffffffffffffffff1681565b600360009054906101000a900473ffffffffffffffffffffffffffffffffffffffff1681565b60015481565b600260009054906101000a900473ffffffffffffffffffffffffffffffffffffffff1681565b6a52b7d2dcc80cd2e400000081565b83600260006101000a81548173ffffffffffffffffffffffffffffffffffffffff021916908373ffffffffffffffffffffffffffffffffffffffff16021790555082600360006101000a81548173ffffffffffffffffffffffffffffffffffffffff021916908373ffffffffffffffffffffffffffffffffffffffff16021790555081600460006101000a81548173ffffffffffffffffffffffffffffffffffffffff021916908373ffffffffffffffffffffffffffffffffffffffff16021790555080600560006101000a81548173ffffffffffffffffffffffffffffffffffffffff021916908373ffffffffffffffffffffffffffffffffffffffff16021790555050505050565b60006127106019836105b29190610962565b6105bc91906109d3565b905080600160008282546105d09190610a04565b925050819055507f1018bb361135be7f7749fcadaf0cc0f12b6cc5b5fd32c88cad8042d0bfa7fc298142604051610608929190610a38565b60405180910390a1505050565b7f308d7d875e72491889f00c362b0a2f7e5f8d9b0448dca3195fdde0d0b8bcce9033826040516106469291906107fb565b60405180910390a15050565b600073ffffffffffffffffffffffffffffffffffffffff82169050919050565b600061067d82610652565b9050919050565b61068d81610672565b82525050565b60006020820190506106a86000830184610684565b92915050565b6000819050919050565b6106c1816106ae565b82525050565b60006020820190506106dc60008301846106b8565b92915050565b600080fd5b6106f081610672565b81146106fb57600080fd5b50565b60008135905061070d816106e7565b92915050565b6000806000806080858703121561072d5761072c6106e2565b5b600061073b878288016106fe565b945050602061074c878288016106fe565b935050604061075d878288016106fe565b925050606061076e878288016106fe565b91505092959194509250565b600081519050610789816106e7565b92915050565b610798816106ae565b81146107a357600080fd5b50565b6000815190506107b58161078f565b92915050565b600080604083850312156107d2576107d16106e2565b5b60006107e08582860161077a565b92505060206107f1858286016107a6565b9150509250929050565b60006040820190506108106000830185610684565b61081d60208301846106b8565b9392505050565b60006020828403121561083a576108396106e2565b5b6000610848848285016107a6565b91505092915050565b60008115159050919050565b61086681610851565b811461087157600080fd5b50565b6000815190506108838161085d565b92915050565b60006020828403121561089f5761089e6106e2565b5b60006108ad84828501610874565b91505092915050565b600082825260208201905092915050565b7f5269736b20636865636b206661696c6564000000000000000000000000000000600082015250565b60006108fd6011836108b6565b9150610908826108c7565b602082019050919050565b6000602082019050818103600083015261092c816108f0565b9050919050565b7f4e487b7100000000000000000000000000000000000000000000000000000000600052601160045260246000fd5b600061096d826106ae565b9150610978836106ae565b9250828202610986816106ae565b9150828204841483151761099d5761099c610933565b5b5092915050565b7f4e487b7100000000000000000000000000000000000000000000000000000000600052601260045260246000fd5b60006109de826106ae565b91506109e9836106ae565b9250826109f9576109f86109a4565b5b828204905092915050565b6000610a0f826106ae565b9150610a1a836106ae565b9250828201905080821115610a3257610a31610933565b5b92915050565b6000604082019050610a4d60008301856106b8565b610a5a60208301846106b8565b939250505056fea2646970667358221220452c500409df87c7ff23fd82883b0942b211e068cdf96d234a341666fc55522c64736f6c63430008130033",
  "linkReferences": {},
  "deployedLinkReferences": {}
}