{
  "_format": "hh-sol-artifact-1",
  "contractName": "AINEONRealEngine",
  "sourceName": "contracts/AINEONRealEngine.sol",
  "abi": [
    {
      "inputs": [],
      "stateMutability": "nonpayable",
      "type": "constructor"
    },
    {
      "anonymous": false,
      "inputs": [
        {
          "indexed": false,
          "internalType": "uint256",
          "name": "amount",
          "type": "uint256"
        },
        {
          "indexed": false,
          "internalType": "uint256",
          "name": "timestamp",
          "type": "uint256"
        }
      ],
      "name": "CapitalDeployed",
      "type": "event"
    },
    {
      "anonymous": false,
      "inputs": [
        {
          "indexed": true,
          "internalType": "address",
          "name": "trader",
          "type": "address"
        },
        {
          "indexed": false,
          "internalType": "uint256",
          "name": "profit",
          "type": "uint256"
        },
        {
          "indexed": false,
          "internalType": "uint256",
          "name": "timestamp",
          "type": "uint256"
        }
      ],
      "name": "RealTradeExecuted",
      "type": "event"
    },
    {
      "inputs": [],
      "name": "UNISWAP_ROUTER",
      "outputs": [
        {
          "internalType": "address",
          "name": "",
          "type": "address"
        }
      ],
      "stateMutability": "view",
      "type": "function"
    },
    {
      "inputs": [],
      "name": "USDC",
      "outputs": [
        {
          "internalType": "address",
          "name": "",
          "type": "address"
        }
      ],
      "stateMutability": "view",
      "type": "function"
    },
    {
      "inputs": [
        {
          "internalType": "uint256",
          "name": "amount",
          "type": "uint256"
        }
      ],
      "name": "deployRealCapital",
      "outputs": [],
      "stateMutability": "nonpayable",
      "type": "function"
    },
    {
      "inputs": [
        {
          "internalType": "address",
          "name": "tokenA",
          "type": "address"
        },
        {
          "internalType": "address",
          "name": "tokenB",
          "type": "address"
        },
        {
          "internalType": "uint256",
          "name": "amount",
          "type": "uint256"
        },
        {
          "internalType": "uint256",
          "name": "minProfit",
          "type": "uint256"
        }
      ],
      "name": "executeRealArbitrage",
      "outputs": [
        {
          "internalType": "uint256",
          "name": "",
          "type": "uint256"
        }
      ],
      "stateMutability": "nonpayable",
      "type": "function"
    },
    {
      "inputs": [],
      "name": "getRealPerformance",
      "outputs": [
        {
          "internalType": "uint256",
          "name": "",
          "type": "uint256"
        },
        {
          "internalType": "uint256",
          "name": "",
          "type": "uint256"
        }
      ],
      "stateMutability": "view",
      "type": "function"
    },
    {
      "inputs": [],
      "name": "owner",
      "outputs": [
        {
          "internalType": "address",
          "name": "",
          "type": "address"
        }
      ],
      "stateMutability": "view",
      "type": "function"
    },
    {
      "inputs": [],
      "name": "totalProfit",
      "outputs": [
        {
          "internalType": "uint256",
          "name": "",
          "type": "uint256"
        }
      ],
      "stateMutability": "view",
      "type": "function"
    },
    {
      "inputs": [],
      "name": "totalTrades",
      "outputs": [
        {
          "internalType": "uint256",
          "name": "",
          "type": "uint256"
        }
      ],
      "stateMutability": "view",
      "type": "function"
    },
    {
      "inputs": [
        {
          "internalType": "address",
          "name": "to",
          "type": "address"
        },
        {
          "internalType": "uint256",
          "name": "amount",
          "type": "uint256"
        }
      ],
      "name": "withdrawRealProfits",
      "outputs": [],
      "stateMutability": "nonpayable",
      "type": "function"
    },
    {
      "stateMutability": "payable",
      "type": "receive"
    }
  ],
  "bytecode": "0x608060405234801561001057600080fd5b50336000806101000a81548173ffffffffffffffffffffffffffffffffffffffff021916908373ffffffffffffffffffffffffffffffffffffffff160217905550610a27806100606000396000f3fe60806040526004361061008a5760003560e01c806389a302711161005957806389a30271146101535780638da5cb5b1461017e578063a0ce4a3e146101a9578063d8264920146101d2578063e275c997146101fd57610091565b8063135c56281461009657806329c6b7ad146100d35780633aaec851146100fc578063860015191461012857610091565b3661009157005b600080fd5b3480156100a257600080fd5b506100bd60048036038101906100b8919061066a565b610228565b6040516100ca91906106e0565b60405180910390f35b3480156100df57600080fd5b506100fa60048036038101906100f591906106fb565b610398565b005b34801561010857600080fd5b50610111610462565b60405161011f929190610728565b60405180910390f35b34801561013457600080fd5b5061013d610473565b60405161014a91906106e0565b60405180910390f35b34801561015f57600080fd5b50610168610479565b6040516101759190610760565b60405180910390f35b34801561018a57600080fd5b50610193610491565b6040516101a09190610760565b60405180910390f35b3480156101b557600080fd5b506101d060048036038101906101cb919061077b565b6104b5565b005b3480156101de57600080fd5b506101e761058e565b6040516101f49190610760565b60405180910390f35b34801561020957600080fd5b506102126105a6565b60405161021f91906106e0565b60405180910390f35b60008060009054906101000a900473ffffffffffffffffffffffffffffffffffffffff1673ffffffffffffffffffffffffffffffffffffffff163373ffffffffffffffffffffffffffffffffffffffff16146102b9576040517f08c379a00000000000000000000000000000000000000000000000000000000081526004016102b090610818565b60405180910390fd5b60006102c68686866105ac565b90508281101561030b576040517f08c379a000000000000000000000000000000000000000000000000000000000815260040161030290610884565b60405180910390fd5b806001600082825461031d91906108d3565b925050819055506002600081548092919061033790610907565b91905055503373ffffffffffffffffffffffffffffffffffffffff167fa082ae58140c18bc2994c994519eb123b1003bdf4495360367db485db1ec45358242604051610384929190610728565b60405180910390a280915050949350505050565b60008054906101000a900473ffffffffffffffffffffffffffffffffffffffff1673ffffffffffffffffffffffffffffffffffffffff163373ffffffffffffffffffffffffffffffffffffffff1614610426576040517f08c379a000000000000000000000000000000000000000000000000000000000815260040161041d90610818565b60405180910390fd5b7fc6e8246d042e5db83fca19cc5e44ba05af1bef259f946ff634a5431a7923aaa38142604051610457929190610728565b60405180910390a150565b600080600154600254915091509091565b60015481565b73a0b86991c6218b36c1d19d4a2e9eb0ce3606eb4881565b60008054906101000a900473ffffffffffffffffffffffffffffffffffffffff1681565b60008054906101000a900473ffffffffffffffffffffffffffffffffffffffff1673ffffffffffffffffffffffffffffffffffffffff163373ffffffffffffffffffffffffffffffffffffffff1614610543576040517f08c379a000000000000000000000000000000000000000000000000000000000815260040161053a90610818565b60405180910390fd5b8173ffffffffffffffffffffffffffffffffffffffff166108fc829081150290604051600060405180830381858888f19350505050158015610589573d6000803e3d6000fd5b505050565b737a250d5630b4cf539739df2c5dacb4c659f2488d81565b60025481565b60006127106019836105be919061094f565b6105c891906109c0565b90509392505050565b600080fd5b600073ffffffffffffffffffffffffffffffffffffffff82169050919050565b6000610601826105d6565b9050919050565b610611816105f6565b811461061c57600080fd5b50565b60008135905061062e81610608565b92915050565b6000819050919050565b61064781610634565b811461065257600080fd5b50565b6000813590506106648161063e565b92915050565b60008060008060808587031215610684576106836105d1565b5b60006106928782880161061f565b94505060206106a38782880161061f565b93505060406106b487828801610655565b92505060606106c587828801610655565b91505092959194509250565b6106da81610634565b82525050565b60006020820190506106f560008301846106d1565b92915050565b600060208284031215610711576107106105d1565b5b600061071f84828501610655565b91505092915050565b600060408201905061073d60008301856106d1565b61074a60208301846106d1565b9392505050565b61075a816105f6565b82525050565b60006020820190506107756000830184610751565b92915050565b60008060408385031215610792576107916105d1565b5b60006107a08582860161061f565b92505060206107b185828601610655565b9150509250929050565b600082825260208201905092915050565b7f4e6f74206f776e65720000000000000000000000000000000000000000000000600082015250565b60006108026009836107bb565b915061080d826107cc565b602082019050919050565b60006020820190508181036000830152610831816107f5565b9050919050565b7f496e73756666696369656e74207265616c2070726f6669740000000000000000600082015250565b600061086e6018836107bb565b915061087982610838565b602082019050919050565b6000602082019050818103600083015261089d81610861565b9050919050565b7f4e487b7100000000000000000000000000000000000000000000000000000000600052601160045260246000fd5b60006108de82610634565b91506108e983610634565b9250828201905080821115610901576109006108a4565b5b92915050565b600061091282610634565b91507fffffffffffffffffffffffffffffffffffffffffffffffffffffffffffffffff8203610944576109436108a4565b5b600182019050919050565b600061095a82610634565b915061096583610634565b925082820261097381610634565b9150828204841483151761098a576109896108a4565b5b5092915050565b7f4e487b7100000000000000000000000000000000000000000000000000000000600052601260045260246000fd5b60006109cb82610634565b91506109d683610634565b9250826109e6576109e5610991565b5b82820490509291505056fea26469706673582212204f9224a61a282103dc29e04e64c45e2036f3318debc9b4ab5b4b43ccbd65806764736f6c63430008130033",
  "linkReferences": {},
  "deployedLinkReferences": {}
}